:020000040000FA
:100000000C9462000C948A000C948A000C948A0070
:100010000C948A000C948A000C948A000C948A0038
:100020000C948A000C948A000C948A000C940508A5
:100030000C948A000C948A000C948A000C948A0018
:100040000C94BB070C948A000C948A000C948A00D0
:100050000C948A000C948A000C948A000C948A00F8
:100060000C94C1080C948A000000000024002700B2
:100070002A0000000000250028002B0000000000DE
:1000800023002600290004040404040404040202DA
:100090000202020203030303030301020408102007
:1000A0004080010204081020010204081020000012
:1000B0000008000201000003040700000000000027
:1000C0000000E00911241FBECFEFD8E0DEBFCDBF96
:1000D00011E0A0E0B1E0E2E4FDE102C005900D9284
:1000E000A03CB107D9F723E0A0ECB1E001C01D921C
:1000F000A334B207E1F710E0C2E6D0E004C02197D4
:10010000FE010E94900EC136D107C9F70E94720A03
:100110000C949F0E0C940000CF92DF92EF92FF920E
:10012000DC01A03282E0B807D4F5A53BB10514F09C
:10013000A4EBB0E04091C50228E830E0241B31096F
:1001400047FD3395220F331F220F331F6901330FF1
:10015000EE08FF084091C60228E532E0241B310971
:1001600047FD3395220F331F220F331F032E000C40
:10017000440B550B2C193D094E095F09B7FF02C00E
:10018000B0E0A0E00E941A0D24EB30E040E050E027
:100190000E94F00CC20ED31EE41EF51ED601E091A3
:1001A000C402EC3080F52091C50288E890E0821B03
:1001B000910927FD9395880F991F880F991FA817FC
:1001C000B90784F02091C60288E592E0821B91096C
:1001D00027FD9395880F991F880F991FA817B907B6
:1001E0000CF4CD010297880F991F4FB7F8942E2F6A
:1001F00030E0F901EE0FFF1FE20FF31FE156FD4F54
:10020000928381834FBFFF90EF90DF90CF9008954E
:1002100096E0899FD0011124AC52BD4F90967C93FB
:100220006E935F9791E091969C939197E091410333
:10023000F091420390914003992339F0309751F0A7
:10024000811108C08091F0020994309719F05C96F2
:100250008C91FACF0895CF92DF92EF92FF920F9395
:100260001F9396E0899FF0011124EC52FD4F11A2DB
:10027000278D30A12130310551F178F02230310540
:1002800009F451C02330310509F452C01F910F9178
:10029000FF90EF90DF90CF9008956623B9F361E06F
:1002A00070E00E9408012FB7F89480918F0290911E
:1002B0009002A0919102B09192022FBF80932C03E3
:1002C00090932D03A0932E03B0932F03DFCF9FB7FE
:1002D000F894C0908F02D0909002E0909102F0903C
:1002E00092029FBF00912C0310912D0320912E03A9
:1002F00030912F03C01AD10AE20AF30A00913E039B
:1003000010913F0330E020E00C151D052E053F0540
:1003100050F462E070E01F910F91FF90EF90DF903A
:10032000CF900C9408016111B1CF63E070E0F3CF7E
:1003300070E060E0F0CF08950895AF92BF92CF9241
:10034000DF92EF92FF920F931F93CF93DF936C0195
:100350007B018B01040F151FEB015E01AE18BF0876
:10036000C017D10759F06991D601ED91FC91019028
:10037000F081E02DC6010995892B79F7C501DF9140
:10038000CF911F910F91FF90EF90DF90CF90BF9092
:10039000AF900895833081F028F4813099F0823055
:1003A000A9F008958730A9F08830C9F08430B1F4FD
:1003B000809180008F7D03C0809180008F77809333
:1003C0008000089584B58F7784BD089584B58F7DAE
:1003D000FBCF8091B0008F778093B000089580911B
:1003E000B0008F7DF9CFCF93DF93282F30E0F90154
:1003F000E255FF4F8491F901E656FF4FD491F90180
:10040000EA57FF4FC491CC23A1F081110E94CA0189
:10041000EC2FF0E0EE0FFF1FE458FF4FA591B491D1
:10042000EC91ED2381E090E009F480E0DF91CF9141
:10043000089580E090E0FACF862F0C94F3011F938B
:10044000CF93DF93282F30E0F901E255FF4F8491DD
:10045000F901E656FF4FD491F901EA57FF4FC491D5
:10046000CC23A9F0162F81110E94CA01EC2FF0E0D5
:10047000EE0FFF1FEE58FF4FA591B4918FB7F89480
:10048000EC91111108C0D095DE23DC938FBFDF9172
:10049000CF911F910895DE2BF8CF862F642F0C94F7
:1004A0001F02CF93DF9390E0FC01E656FF4F2491AB
:1004B0008A579F4FFC0184918823C9F090E0880FF0
:1004C000991FFC01E859FF4FA591B491FC01EE582A
:1004D000FF4FC591D49161110DC09FB7F8948C91D5
:1004E000209582238C938881282328839FBFDF91C6
:1004F000CF910895623051F49FB7F8943C91822FC8
:10050000809583238C93E8812E2BEFCF8FB7F894BF
:10051000EC912E2B2C938FBFEACF862F642F0C9457
:1005200051026F927F928F929F92AF92BF92CF9221
:10053000DF92EF92FF920F931F93CF93DF9381E0AF
:10054000809340038FB7F89440918F0250919002AE
:1005500060919102709192028FBF809130039091CF
:100560003103A0913203B0913303481B590B6A0B3E
:100570007B0B80913C0390913D03B0E0A0E0841799
:100580009507A607B70708F01DC1C0E080913A03A0
:10059000C81760F4E0913603F0913703EC0FF11DBA
:1005A00062E080810E945102CF5FF0CF712C812CDC
:1005B000912C5401839480913B03781608F05FC01E
:1005C000072D10E0E0913803F0913903E00FF11F9F
:1005D00061E080810E945102E0913803F09139037B
:1005E000E00FF11F60E080810E941F02D501C4016D
:1005F000072C04C0880F991FAA1FBB1F0A94D2F7AB
:100600006C017C01E094F094612C80913A036816AF
:10061000F8F4C62DD0E0E0913603F0913703EC0FEB
:10062000FD1F80810E94F3012496CC0FDD1FCC5268
:10063000DD4F892B41F4888199818C299D299983EB
:1006400088836394E2CF888199818E219F21F7CF9F
:10065000E0913803F0913903E00FF11F61E08081F0
:100660000E941F028091380390913903080F191FCF
:1006700060E0F80180810E94510273949CCFC4ED28
:10068000D2E0FE018FEF9FEF278D30A1232B21F4C5
:10069000148E968F858F11A2369623E0E031F207F3
:1006A00099F7F12C96E0D92E80913A03F81608F0CC
:1006B00050C0E12C0F2D10E0000F111F04521D4FF0
:1006C00020913B03E21608F042C0F801608171817D
:1006D0000E2C02C0769567950A94E2F7F29E90017F
:1006E00011242E0D311DE4EDF2E080E0458D568D94
:1006F0002417350709F46AC08F5F36968A30B1F740
:1007000060FF23C0E4EDF2E090E080E0448D411111
:1007100017C0E0913403F0913503E20FF31F4081DD
:10072000D89EF001D99EF00D1124EC52FD4F448F5C
:10073000368F258F10A2178E61E00E942B0105C015
:10074000019636968A30910509F7E394B9CFF39470
:10075000ABCF80E099A19111892F2696F3E0C031AB
:10076000DF07C1F79FB7F89440918F025091900234
:1007700060919102709192029FBF40933003509319
:10078000310360933203709333038823D9F080914F
:10079000F5028823B9F08091F3029091F402019759
:1007A00089F48091F002DF91CF911F910F91FF901A
:1007B000EF90DF90CF90BF90AF909F908F907F9001
:1007C0006F9008951092400380E0EDCF6170B5CF37
:1007D0001F93CF93DF93182FEB0161E00E9451022A
:1007E000209739F460E0812FDF91CF911F910C9415
:1007F0001F02CF3FD10511F461E0F5CFE12FF0E00A
:10080000E255FF4FE491E33031F140F4E130B1F0D3
:10081000E230E1F0C038D1057CF7E4CFE73029F1D0
:10082000E83059F1E430B1F7809180008062809324
:100830008000D0938B00C0938A0004C084B5806888
:1008400084BDC7BDDF91CF911F91089584B58062AB
:1008500084BDC8BDF7CF8091800080688093800000
:10086000D0938900C0938800EDCF8091B00080685C
:100870008093B000C093B300E5CF8091B000806258
:100880008093B000C093B400DDCF3FB7F89480915F
:10089000740290917502A0917602B091770226B50C
:1008A000A89B05C02F3F19F00196A11DB11D3FBFA8
:1008B000BA2FA92F982F8827BC01CD01620F711D77
:1008C000811D911D42E0660F771F881F991F4A9571
:1008D000D1F708958F929F92AF92BF92CF92DF92FD
:1008E000EF92FF924B015C010E9445046B017C0179
:1008F0000E9445046C197D098E099F09683E73406A
:1009000081059105A8F321E0821A9108A108B10898
:1009100088EEC80E83E0D81EE11CF11C81149104FE
:10092000A104B10429F7FF90EF90DF90CF90BF9022
:10093000AF909F908F900895089520910102260F07
:100940003327331F21323105ECF420914A02FC0198
:1009500090E080E0243069F082E00895A0910102E7
:100960002191AC014F515E4FA40FB52FB11D2C93B7
:100970000196861798F380910102680F6093010237
:1009800080E0089581E0089510924A0281E080930A
:1009900049021092240261E082E10E941F0261E09C
:1009A00083E10E941F02E9EBF0E080818E7F80836B
:1009B00080818D7F808388E48093B80085E4809374
:1009C000BC000895CF93DF9391E09093E0018823DA
:1009D000B9F0C091B800D091BA008091BC008A7B78
:1009E0008093BC0060E082E10E941F0260E083E12E
:1009F0000E941F020E94C404D093BA00C093B800A2
:100A0000DF91CF9108950895E0917F0280917E0259
:100A1000E81730F4F0E0E054FE4F808190E0089554
:100A20008FEF9FEF089590917F0280917E022FEFCC
:100A30003FEF981748F4E92FF0E0E054FE4F208193
:100A400030E09F5F90937F02C901089580917E02FC
:100A500090917F02891B990B0895CF92DF92EF92BC
:100A6000FF920F931F93CF93DF937C01CB018A01F9
:100A700020915002222389F0EB016B01C40ED51E98
:100A8000CC15DD0569F06991D701ED91FC910190DC
:100A9000F081E02DC7010995F3CF642F0E949D04DA
:100AA000C801DF91CF911F910F91FF90EF90DF90E0
:100AB000CF900895CF93DF931F92CDB7DEB76983B0
:100AC000209150022223F9F020917C02203258F02C
:100AD00021E030E0FC013383228390E080E00F903E
:100AE000DF91CF91089580917D02E82FF0E0EF5AD9
:100AF000FD4F998190838F5F80937D0280937C026C
:100B000081E090E0ECCF61E0CE0101960E949D046F
:100B1000F7CFCF92DF92EF92FF920F931F93CF9375
:100B2000DF93FC01C48121E020935002C093710245
:100B300010927D0210927C028485682B83E992E0FA
:100B40000E945A05D0917C02D13208F092C00E94D6
:100B500045046B017C0180914A02811165C082E0ED
:100B600080934A0281E0809349028FEF809348028C
:100B700010924702D0934602A1E5B2E0E6E2F2E02D
:100B800080E0D81385C01092250280912502CC0FF9
:100B9000C82BC093250280912402813009F07CC0CB
:100BA000109224020E9445046B017C018091250271
:100BB0008093BB0080914C0290914D02A0914E0217
:100BC000B0914F02892B8A2B8B2B99F00E94450400
:100BD00000914C0210914D0220914E0230914F0233
:100BE0006C197D098E099F09061717072807390711
:100BF000E0F18091BC0083FDD9CF85EC8093BC00EF
:100C00000E9445046B017C0180914A02823009F404
:100C100045C0809148028F3F61F180914802803247
:100C200041F18091480225C080914C0290914D0283
:100C3000A0914E02B0914F02892B8A2B8B2B09F485
:100C40008ACF0E94450400914C0210914D022091E0
:100C50004E0230914F026C197D098E099F090617CB
:100C600017072807390708F076CF80914B020E94BA
:100C7000E20410927D0210927C0210925002DF91E9
:100C8000CF911F910F91FF90EF90DF90CF9008953B
:100C90009D9191938F5F75CF85EEB0CF80914C027F
:100CA00090914D02A0914E02B0914F02892B8A2B58
:100CB0008B2B09F4A9CF0E94450400914C0210919E
:100CC0004D0220914E0230914F026C197D098E0920
:100CD0009F09061717072807390708F095CFC5CFD2
:100CE00090E080E008958F929F92AF92BF920F9311
:100CF0001F93CF93DF93CDB7DEB7A1970FB6F894CC
:100D0000DEBF0FBECDBF19A2423008F44AE08E010B
:100D10000F5D1F4F842E912CB12CA12CA5019401A5
:100D20000E94220DE62FB901CA01EA3044F5E05DC8
:100D3000D801EE938D01232B242B252B79F790E0FE
:100D400080E0109769F0FD0101900020E9F73197EC
:100D5000AF014A1B5B0BBD0187EC92E00E949D0135
:100D6000A1960FB6F894DEBF0FBECDBFDF91CF9135
:100D70001F910F91BF90AF909F908F900895E95C65
:100D8000D7CFFC0101900020E9F73197AF01481B54
:100D9000590BBC0187EC92E00C949D010F931F93BB
:100DA000CF938C01C62F0E9489056C2F6460C80107
:100DB0000E9489056C2F6B7FC8010E94890583EC16
:100DC00090E00197F1F7CF911F910F9108950F9344
:100DD0001F93CF93DF938C01D62FC42F607F642B9A
:100DE0000E94CE0680E1D89FB00111246C2BC8016F
:100DF000DF91CF911F910F910C94CE06CF93DF938B
:100E0000CDB7DEB728970FB6F894DEBF0FBECDBFC3
:100E100098E0EFE1F1E0DE01119601900D929A95D4
:100E2000E1F79091CF02961708F46FEF262F30E08C
:100E3000220F331F41E050E04C0F5D1F240F351F80
:100E4000F9016081680F606840E087EC92E02896C5
:100E50000FB6F894DEBF0FBECDBFDF91CF910C94DB
:100E6000E70640E061E087EC92E00E94E7068BE352
:100E70009FE10197F1F78091D002882321F060E093
:100E800080E00C94FE0608950E94310780918D0247
:100E9000E82FF0E0E957FD4F882319F081501292B6
:100EA000FBCF10928D02089541E00E94E70681E099
:100EB00090E00895CF92DF92EF92FF926C01990F2C
:100EC000EE08FF08F7FE16C041E06DE287EC92E005
:100ED0000E94E70666277727CB016C197D098E09EA
:100EE0009F094AE00E9473060196FF90EF90DF9001
:100EF000CF9008954AE0C701B601FF90EF90DF90D0
:100F0000CF900C94730685ED8093BC0080914C02C9
:100F100090914D02A0914E02B0914F020796A11DF3
:100F2000B11D23E0B695A795979587952A95D1F79A
:100F30002091BC0024FD03C010924A020895409104
:100F40004C0250914D0260914E0270914F02452B20
:100F5000462B472B69F30097A105B10541F025E326
:100F60002A95F1F700000197A109B109E1CF80911D
:100F70004B020C94E2041F920F920FB60F921124B1
:100F80002F933F938F939F93AF93BF9380918F0243
:100F900090919002A0919102B091920230917302CF
:100FA00023E0230F2D3758F50196A11DB11D209385
:100FB000730280938F0290939002A0939102B0935A
:100FC00092028091740290917502A0917602B09184
:100FD00077020196A11DB11D809374029093750252
:100FE000A0937602B0937702BF91AF919F918F91BA
:100FF0003F912F910F900FBE0F901F90189526E8EC
:10100000230F0296A11DB11DD2CF1F920F920FB6D2
:101010000F9211242F933F934F935F936F937F937E
:101020008F939F93AF93BF93CF93DF93EF93FF93F0
:1010300080917202C091C302D0E087FF24C0109259
:10104000850010928400809172028F5F80937202FB
:1010500080917202082E000C990B8C179D0724F4C6
:10106000809172028C30C4F180918400909185004F
:10107000049680349C4908F47AC080918400909151
:101080008500049676C080917202082E000C990BA0
:101090008C179D07C4F6E09172028E2FEE0F990B0C
:1010A000FC01EE0FFF1FE80FF91FE156FD4F808195
:1010B00086FFC9CFE09172028E2FEE0F990BFC01D3
:1010C000EE0FFF1FE80FF91FE156FD4F808160E032
:1010D0008F730E941F02B7CF20918400309185004A
:1010E000E09172028E2FEE0F990BFC01EE0FFF1FA5
:1010F000E80FF91FE156FD4F81819281820F931F06
:101100009093890080938800E09172028E2FEE0FF9
:10111000990BFC01EE0FFF1FE80FF91FE156FD4F81
:10112000808186FF11C0E09172028E2FEE0F990B25
:10113000FC01EE0FFF1FE80FF91FE156FD4F808104
:1011400061E08F730E941F02FF91EF91DF91CF91B9
:10115000BF91AF919F918F917F916F915F914F91CF
:101160003F912F910F900FBE0F901F90189580E424
:101170009CE990938900809388008FEF809372029E
:10118000E3CF1F920F920FB60F9211242F933F932C
:101190004F935F936F937F938F939F93AF93BF937F
:1011A000EF93FF938091B900887F803609F44AC09D
:1011B000F0F5883209F4A7C018F5803109F49BC016
:1011C000B8F4882309F4F9C0883009F494C0FF9179
:1011D000EF91BF91AF919F918F917F916F915F91AF
:1011E0004F913F912F910F900FBE0F901F90189528
:1011F000883109F488C0803251F78093480214C0C6
:10120000803409F49DC040F48033B9F38833F9F693
:101210008093480285ECB0C0803509F485C08835DC
:1012200009F496C0883499F60E948307D0CF883994
:1012300009F48CC038F5883729F050F4883611F05D
:10124000803729F683E080934A021092230257C028
:10125000883809F47BC0803919F0803809F0B7CF9D
:1012600080912302803208F071C0E091230281E076
:101270008E0F809323028091BB00F0E0ED5FFD4F65
:1012800080833DC0803B39F0E0F4803A09F479C0B6
:10129000883A09F09CCF84E080934A0210920202BF
:1012A00010920102E0917A02F0917B0209958091FF
:1012B000010281110FC081E0809301021092E101CF
:1012C00009C0803C09F4A6CF883C09F4A3CF883B31
:1012D00009F07DCFE091020281E08E0F809302023F
:1012E000F0E0EF51FE4F80818093BB0090910202AD
:1012F0008091010229C0809125028093BB0085EC7A
:101300008093BC0064CF9091470280914602981769
:1013100058F5E091470281E08E0F80934702F0E09C
:10132000EA5DFD4F8081E9CFE091470281E08E0FB9
:10133000809347028091BB00F0E0EA5DFD4F80831F
:1013400090914702809146029817C8F285E8D8CF5D
:10135000E091470281E08E0F809347028091BB00AD
:10136000F0E0EA5DFD4F80838091490281115CCFFE
:1013700081E08093240284EA8093BC0010924A02A8
:1013800026CF85EC8093BC0010924A028091230204
:10139000803230F4E0912302F0E0ED5FFD4F1082E7
:1013A0006091230270E0E0917802F091790283E08D
:1013B00092E00995109223020ACF1092480234CF8E
:1013C000109296021092950288EE93E0A0E0B0E0B1
:1013D0008093970290939802A0939902B0939A02F7
:1013E0008BE291E090939402809393021092D60244
:1013F0001092DA021092D9021092DB0289E491E095
:101400009093D5028093D402E0EFF2E01082148230
:1014100013821582369683E0EC32F807B9F78BE039
:1014200091E0909337038093360387E091E09093A7
:1014300039038093380384E080933A0380933B031D
:101440008FE091E090933503809334038AE090E03D
:1014500090933D0380933C0384EF91E090933F038E
:1014600080933E0310924203109241031092300386
:101470001092310310923203109233031092400302
:101480001092CA021092C9028DE391E09093C802B3
:101490008093C7021092D00280E28093CB0280E159
:1014A0008093D10282E08093D2021092D302809185
:1014B000C3028C3098F491E0980F9093C30280930C
:1014C000C40290E0FC01EE0FFF1FE80FF91FE15688
:1014D000FD4F88EB9BE09283818308958FEF80938B
:1014E000C4020895789484B5826084BD84B5816017
:1014F00084BD85B5826085BD85B5816085BD8091DF
:101500006E00816080936E00109281008091810056
:10151000826080938100809181008160809381004E
:10152000809180008160809380008091B100846010
:101530008093B1008091B00081608093B000809171
:101540007A00846080937A0080917A008260809330
:101550007A0080917A00816080937A0080917A008D
:10156000806880937A001092C10010927F021092DE
:101570007E0210927D0210927C020E94C4048BE9CC
:1015800091E090937B0280937A028CE991E09093B2
:101590007902809378021092CC028091D20282303C
:1015A00018F098E09093CC028093CF0262E370E051
:1015B00080E090E00E946A046091D30287EC92E0A0
:1015C0000E94890568EE73E080E090E00E946A0462
:1015D00060E387EC92E00E94CE06CBE4D6E4CE0135
:1015E0000197F1F760E387EC92E00E94CE06219725
:1015F000F1F760E387EC92E00E94CE0683E592E08B
:101600000197F1F760E287EC92E00E94CE066091CC
:10161000CC02606240E087EC92E00E94E70684E042
:101620008093CD0240E06CE087EC92E00E94E706F8
:101630000E94310782E08093CE0240E066E087ECB2
:1016400092E00E94E70640E062E087EC92E00E94B0
:10165000E7068BE39FE10197F1F788E08093D302DF
:1016600060E087EC92E00E9489058091C4028C3092
:1016700008F051C061E08AE00E9451028091C402EA
:10168000282F30E0F901EE0FFF1FE20FF31FE156A4
:10169000FD4F9081907C9A6090831092C5021092C9
:1016A000C6022CE0622F0E94840E829FB00111249A
:1016B00030E020E0AB01420F531FFA01EE0FFF1F95
:1016C000E40FF51FE156FD4F908196FD16C02F5F88
:1016D0003F4F2C30310571F781110FC010928000FF
:1016E00082E0809381001092850010928400B19A6C
:1016F00080916F00826080936F00E091C4028E2F12
:1017000090E0FC01EE0FFF1FE80FF91FE156FD4FBF
:1017100080818064808361E08BE00E94510260E000
:101720008FE00E94510261E08CE00E94510281E44E
:10173000982E00E010E094EBE92EF12C25E0C22E6B
:10174000D12C34E1A32EB12C60E081E00E94FE0692
:101750008FE491E00E94C1060E949102D82F8093ED
:101760008E028823D1F0C0918D02EC2FF0E0EA5771
:10177000FD4F808361E08C2F0E94FE0641E06AE20B
:1017800087EC92E00E94E706CF5FC0938D02D332D0
:1017900021F40E9431070E94440780918D02863017
:1017A00009F017C10E94310760E071E086E892E01D
:1017B0000E94960E60E0892B09F0FCC084E00E9434
:1017C000FE068EE591E00E94C10668E572E080E0C9
:1017D00090E00E946A040E94310760E081E00E946C
:1017E000FE0686E691E00E94C106F0928502E09234
:1017F0008402C0918402D09185021C161D069CF4BF
:10180000BE018AE00E94E803CE010E948C0065E0E0
:1018100070E080E090E00E946A042597D0938502F2
:10182000C0938402E6CF68E572E080E090E00E9419
:101830006A040E94310760E082E00E94FE0684E7AD
:1018400091E00E94C10661E08BE00E941F0268ECFB
:1018500070E080E090E00E946A040E949102811191
:1018600069C090927C0080917A00806480937A00B5
:1018700080917A0086FDFCCF80917800609179009C
:10188000762F682F072E000C880B990B0E948B0D6A
:1018900020E030E04AEF5EE30E94EF0D0E94530D1E
:1018A000209182023091830226173707B1F270939C
:1018B0008302609382020E94310760E081E00E940F
:1018C000FE0682E891E00E94C10660E087E00E9487
:1018D000FE0680918202909183020E945A0789E855
:1018E00091E00E94C10680918202909183028797C5
:1018F000E4F0B0928102A0928002609180028CE0BC
:101900000E941F0261E080E00E94FE068CE891E0E8
:101910000E94C10661E08DE00E94FE068091800277
:10192000909181020E945A0798CFD0928102C09272
:101930008002E3CF0E94310760E081E00E94FE0652
:1019400089E991E00E94C10660E08BE00E941F02DD
:10195000109281021092800260E08CE00E941F02CF
:10196000109283021092820261E081E00E94FE06E2
:1019700087EA91E00E94C1061092850210928402CB
:10198000C0918402D0918502C53BD105D4F4BE013B
:101990008AE00E94E803CE010E948C0065E070E0BE
:1019A00080E090E00E946A042596D0938502C0935F
:1019B0008402E6CF84E00E94FE0685EB91E00E945F
:1019C000C10668EE73E080E090E00E946A040E9425
:1019D00044070115110509F4B7CE0E940000B4CEEA
:1019E000052E97FB1EF400940E94070D57FD07D0AB
:1019F0000E94220D07FC03D04EF40C94070D509565
:101A00004095309521953F4F4F4F5F4F08959095EA
:101A10008095709561957F4F8F4F9F4F08950E94DD
:101A2000440DA59F900DB49F900DA49F800D911D16
:101A300011240895B7FF0C940F0D0E940F0D821B07
:101A4000930B0895A1E21A2EAA1BBB1BFD010DC02A
:101A5000AA1FBB1FEE1FFF1FA217B307E407F5075E
:101A600020F0A21BB30BE40BF50B661F771F881F3A
:101A7000991F1A9469F760957095809590959B01D0
:101A8000AC01BD01CF010895A29FB001B39FC00179
:101A9000A39F700D811D1124911DB29F700D811D9A
:101AA0001124911D08950E945A0D6894B1110C944F
:101AB000E90D08950E94CE0D88F09F5798F0B92F38
:101AC0009927B751B0F0E1F0660F771F881F991F73
:101AD0001AF0BA95C9F714C0B13091F00E94E80D20
:101AE000B1E008950C94E80D672F782F8827B85F30
:101AF00039F0B93FCCF3869577956795B395D9F7CB
:101B00003EF490958095709561957F4F8F4F9F4FD4
:101B10000895E89409C097FB3EF4909580957095E0
:101B200061957F4F8F4F9F4F9923A9F0F92F96E929
:101B3000BB279395F695879577956795B795F1119E
:101B4000F8CFFAF4BB0F11F460FF1BC06F5F7F4F3B
:101B50008F4F9F4F16C0882311F096E911C077234D
:101B600021F09EE8872F762F05C0662371F096E856
:101B7000862F70E060E02AF09A95660F771F881F25
:101B8000DAF7880F9695879597F9089557FD90583D
:101B9000440F551F59F05F3F71F04795880F97FB31
:101BA000991F61F09F3F79F08795089512161306EB
:101BB0001406551FF2CF4695F1DF08C0161617061A
:101BC0001806991FF1CF869571056105089408954F
:101BD000E894BB2766277727CB0197F908950E94E1
:101BE000020E0C94730E0E94650E38F00E946C0E6B
:101BF00020F0952311F00C945C0E0C94620E1124CD
:101C00000C94E90D0E94C60D70F3959FC1F3950FDA
:101C100050E0551F629FF001729FBB27F00DB11D70
:101C2000639FAA27F00DB11DAA1F649F6627B00D00
:101C3000A11D661F829F2227B00DA11D621F739FE9
:101C4000B00DA11D621F839FA00D611D221F749FF7
:101C50003327A00D611D231F849F600D211D822F3E
:101C6000762F6A2F11249F5750409AF0F1F0882365
:101C70004AF0EE0FFF1FBB1F661F771F881F915092
:101C80005040A9F79E3F510580F00C945C0E0C94D7
:101C9000E90D5F3FE4F3983ED4F386957795679519
:101CA000B795F795E7959F5FC1F7FE2B880F911DBC
:101CB0009695879597F9089597F99F6780E870E062
:101CC00060E008959FEF80EC089500240A941616B2
:101CD000170618060906089500240A94121613061A
:101CE000140605060895092E0394000C11F48823A8
:101CF00052F0BB0F40F4BF2B11F460FF04C06F5FC4
:101D00007F4F8F4F9F4F0895991B79E004C0991F13
:101D1000961708F0961B881F7A95C9F78095089545
:101D2000EE0FFF1F0590F491E02D0994FB01DC01FB
:101D30008D91019080190110D9F3990B0895F894B1
:101D4000FFCF31323334353600050403020908076A
:101D5000063132334134353642373839432A30235D
:101D6000440000400014005400000000005A052DFB
:101D70000570060305260513050405000000005440
:101D8000079D0170069C04000000008D024D021C9E
:101D900002456E7465722050617373776F726400D0
:101DA000436F727265637400446F6F72204F706589
:101DB0006E6E696E67004C656473204F70656E6E61
:101DC000696E670054454D503D20002A430046612E
:101DD0006E205370656564203D2000486F6D65205E
:101DE000436C6F7365696E6700446F6F7220436C5C
:101DF0006F7365696E6700496E636F7272656374B5
:021E00000000E0
:107E0000112484B714BE81FFF0D085E080938100F7
:107E100082E08093C00088E18093C10086E0809377
:107E2000C20080E18093C4008EE0C9D0259A86E02C
:107E300020E33CEF91E0309385002093840096BBD3
:107E4000B09BFECF1D9AA8958150A9F7CC24DD24C4
:107E500088248394B5E0AB2EA1E19A2EF3E0BF2EE7
:107E6000A2D0813461F49FD0082FAFD0023811F036
:107E7000013811F484E001C083E08DD089C08234E0
:107E800011F484E103C0853419F485E0A6D080C0E4
:107E9000853579F488D0E82EFF2485D0082F10E0AE
:107EA000102F00270E291F29000F111F8ED06801E7
:107EB0006FC0863521F484E090D080E0DECF843638
:107EC00009F040C070D06FD0082F6DD080E0C81688
:107ED00080E7D80618F4F601B7BEE895C0E0D1E017
:107EE00062D089930C17E1F7F0E0CF16F0E7DF06D8
:107EF00018F0F601B7BEE89568D007B600FCFDCFD4
:107F0000A601A0E0B1E02C9130E011968C91119780
:107F100090E0982F8827822B932B1296FA010C0160
:107F200087BEE89511244E5F5F4FF1E0A038BF0790
:107F300051F7F601A7BEE89507B600FCFDCF97BE46
:107F4000E89526C08437B1F42ED02DD0F82E2BD052
:107F50003CD0F601EF2C8F010F5F1F4F84911BD097
:107F6000EA94F801C1F70894C11CD11CFA94CF0C13
:107F7000D11C0EC0853739F428D08EE10CD085E9AC
:107F80000AD08FE07ACF813511F488E018D01DD067
:107F900080E101D065CF982F8091C00085FFFCCF94
:107FA0009093C60008958091C00087FFFCCF809118
:107FB000C00084FD01C0A8958091C6000895E0E648
:107FC000F0E098E1908380830895EDDF803219F02E
:107FD00088E0F5DFFFCF84E1DECF1F93182FE3DFCA
:107FE0001150E9F7F2DF1F91089580E0E8DFEE27F6
:047FF000FF270994CA
:027FFE00040479
:00000001FF
